:020000040800F2
:10000000602400203D04000845040008470400085F
:10001000490400084B0400084D04000800000000DB
:100020000000000000000000000000000D030008B8
:100030005104000800000000C5030008290400085E
:100040005704000857040008570400085704000824
:100050005704000857040008570400085704000814
:100060005704000857040008570400085704000804
:1000700057040008570400085704000857040008F4
:1000800057040008570400085704000857040008E4
:1000900057040008570400085704000857040008D4
:1000A00057040008570400085704000857040008C4
:1000B00057040008570400085704000857040008B4
:1000C00057040008570400085704000857040008A4
:1000D0005704000857040008570400085704000894
:1000E0005704000857040008570400085704000884
:1000F0005704000857040008570400085704000874
:100100005704000857040008570400085704000863
:100110005704000857040008570400085704000853
:100120005704000857040008570400085704000843
:100130005704000857040008570400085704000833
:100140005704000857040008570400085704000823
:100150005704000857040008570400085704000813
:100160005704000857040008570400085704000803
:100170005704000857040008570400080000000056
:10018000570400085704000800F002F800F069F86E
:100190000AA090E8000C82448344AAF10107DA45E2
:1001A00001D100F05EF8AFF2090EBAE80F0013F0CB
:1001B000010F18BFFB1A43F001031847A83F0000C6
:1001C000C83F00000A444FF0000C10F8013B13F048
:1001D000070408BF10F8014B1D1108BF10F8015BA0
:1001E000641E05D010F8016B641E01F8016BF9D193
:1001F00013F0080F1EBF10F8014BAD1C0C1B09D1EA
:100200006D1E58BF01F801CBFAD505E014F8016B5B
:1002100001F8016B6D1EF9D59142D6D370470000ED
:100220000023002400250026103A28BF78C1FBD8FF
:10023000520728BF30C148BF0B607047662903F0E2
:100240001087002070471FB503F001FF00F0EDFBA1
:1002500004000020002103F083FBE0601FBD10B507
:1002600010BD00F0E5FC1146FFF7EDFF0FB400F004
:100270000BF80FBC01F0C4FD00F09FF903B4FFF7C9
:10028000EEFF03BC00F0CEFC04B002F059FA0448C3
:10029000002102F0A9FA02F065FA00F08EF90000E0
:1002A000C040000880F309887047EFF30980704769
:1002B000684680F3098804480078C00714BF02200C
:1002C000032080F31488704780400008DFF818C0CE
:1002D000EFF305831B0618BF6047EFF31483DB07BA
:1002E00008BF604700DF7047B7280008DFF818C074
:1002F000EFF305831B0618BF6047EFF31483DB079A
:1003000008BF604700DF7047952A0008EFF30980B7
:10031000816911F8021CE1BB90E80F1010B5E047AD
:10032000BDE81040EFF3098C8CE80700214B93E8FF
:100330000600914208BF704741B91EF0100F16D158
:100340001D49086820F00100086010E01EF0100F41
:1003500006BF2CED108A0120002081F825002CE931
:10036000F00FC1F828C00CB402F03EFF0CBC1A60BC
:10037000D2F828C0BCE8F00F92F8250000280EBF84
:100380006FF0020E6FF0120EBCEC108A8CF309882D
:10039000704710B5094A1268914209D8084C54F8C0
:1003A000214090E80F10A047EFF3098C8CE80F0074
:1003B00010BD00008C10002034EF00E0D4150008C0
:1003C000D415000810B502F0D3FDBDE81040154B60
:1003D00093E80600914208BF7047EFF3098C1EF0C6
:1003E000100F06BF2CED108A0120002081F8250097
:1003F0002CE9F00FC1F828C00CB402F0F5FE0CBCDB
:100400001A60D2F828C0BCE8F00F92F82500002846
:100410000EBF6FF0020E6FF0120EBCEC108A8CF360
:10042000098870478C10002010B502F0A5FFCCE7BA
:1004300010B502F03FFA02F09FFFC6E70948804777
:1004400009480047FEE7FEE7FEE7FEE7FEE7FEE7B6
:10045000FEE7FEE7FEE7FEE704480549054A064BCE
:10046000704700006916000889010008601E00201E
:100470006024002060200020602000200048704799
:10048000FC1D00200FB41CB5074B06AA7B4469462F
:100490000090059800F0B1FA0020694600F0C0FA1B
:1004A0001CBC5DF814FB0000910500002DE9F0472D
:1004B0004FF0000A89460446C0F820A02046E168B3
:1004C0008847002876D0252806D0D4E90121904716
:1004D000206A401C2062F1E7E16820460025884739
:1004E000C4F81CA006460027C4F818A02A2E09D07C
:1004F000304601F098F938B304EB8708303EC8F86D
:10050000186019E059F8041B204604EB870291613A
:10051000E1688847012F064618D1E069002820DAF3
:1005200025F020051DE0D8F8180000EB800006EB50
:1005300040003038C8F818002046E1688847064671
:1005400001F071F90028EED1012F0AD02E2E08D12A
:100550002046E16888477F1C0646022F45F02005AB
:10056000C4DBA069002803DA404245F00105A06120
:10057000E80701D025F01005B6B1A6F14100192811
:1005800002D8203645F400654A46314620462560AB
:100590004D46FFF753FE58B1012806D0ED1D25F05A
:1005A000070000F1080989E704E005F1040985E77F
:1005B00030468AE7206ABDE8F08710B50446AFF3FD
:1005C00000802046BDE81040FFF758BE70477047D6
:1005D000704770472DE9FF4F0C461E464FF0FF371E
:1005E0008BB0D2E90001DDF860800A908A46C1F341
:1005F0000A5505B93D46002108464FF00000BAF102
:10060000000F00F4400005DA00EB80004FF44001D9
:1006100001EA50004FEA9059B9F1010F00DDB946E7
:100620000A9850EA4A000ED044F61050A5F2FF3561
:1006300045432F14B8F1000F1ED07542291E1EDD50
:10064000C9F100021CE0B8F1010F4FF0000001D029
:10065000302103E0F24305E02154401CB042FBDBB3
:1006600030460022002121540B99C1F80880C1E9CD
:1006700000200FB0BDE8F08FBD1B6D1CDEE74A46C1
:1006800000DA694206A800F05BFA06AB93E80700BF
:1006900003AB83E8070050460A9900F0D3FB8DE8CE
:1006A0000700A0F500501F3800900398002D0ADDC8
:1006B00042F21F014A460844002303A903906846FA
:1006C00000F03CFE09E0A0F500504A461F38002328
:1006D00003A90390684600F046FE8DE80700000479
:1006E000000C03D04FF0FF30410800E01046B8F195
:1006F000000F03D00022009215461EE0751E05D49F
:1007000000F098F9303262556D1EF9D5B3460122DA
:10071000084302D000227F1C04E02078302801D159
:1007200000227F1E002A099784D01DE0112D07DAD0
:1007300000F080F9303262556D1C50EA0102F5D1AB
:10074000084302D00098C8B10EE00021681E05E001
:10075000235C625C63542254401E491C8142F7DBD7
:10076000AB46A81B401E0990002004F80B000B9814
:10077000099AC0F80880C0E9002B7AE711264FF0EB
:10078000000857E72DE9F04F88460446D21D22F0B5
:10079000070191B0D1E90001CDE90A0100F096FF0F
:1007A00002460B98C00F01D02D2007E0206881077A
:1007B00001D52B2002E0202101EAC000032A099084
:1007C00001D0072A05DB03464146204600F078F9B0
:1007D0000BE12078800601D5E06900E00620B8F141
:1007E000650F814606D0B8F1660F18D0B8F1670FD3
:1007F00070D131E00020B9F1110F009001DB11231D
:1008000001E009F101030AAA01A90CA8FFF7E2FE21
:10081000DDE90C70002609F10105834647E001205F
:100820004B4600904FF000470AAA01A90CA8FFF719
:10083000D1FEDDE90DB00C995D46002610B909F135
:1008400001000D18B9EB050003D4C0F1FF3609F122
:100850000105A5EB09002BE0B9F1010F01DA4FF01A
:1008600001090020B9F1110F0090484601DD112364
:1008700000E003460AAA01A90CA8FFF7ABFEDDE9D8
:100880000C704D4600268346207800070AD4AB45FD
:1008900000DA5D4601A8012D04DD411911F8011CA3
:1008A000302907D04F4502DA17F1040F04DA01208E
:1008B00082460FE06D1EEEE7002F02DCED1B3E448A
:1008C00003E0781CA84200DD7D1CB81B00F1010A82
:1008D0004FF000472078000703D4AA4501DB4FF012
:1008E000FF3A0021B7F1004F0DF143088DF8431096
:1008F00024D002202B23002F01DA7F422D230A214E
:10090000021EA0F1010000DC5FB197FBF1FC97FB38
:10091000F1F201FB1C7C17460CF1300C08F801CDFC
:10092000EEE7A8F1010003702188090501D54521F2
:1009300000E06521A0F1010800F8011C09980FA949
:10094000A1EB0807FF1D00B10120411901EBEA707E
:10095000A1693844081A401EA0612078C00602D45C
:100960002046AFF30080099828B1D4E901219047CF
:10097000206A401C20622078C00622D52046AFF3B2
:1009800000801EE0002E04DBB34502DD01A8805D7F
:1009900000E03020D4E901219047206A401C206209
:1009A000761CAAF101005FEA000A0AD100F03DF8C6
:1009B000C0680168405CD4E901219047206A401C6E
:1009C0002062281EA5F10105DCDC07E0D4E9012145
:1009D00018F8010B9047206A401C2062381EA7F1CE
:1009E0000107F3DC2046AFF30080032011B041E69D
:1009F00001694A1C02610878704700B58FB0CDE9E3
:100A000001310021059105497944CDE903101146D2
:100A10006846FFF74BFD0FB000BD0000E5FFFFFF8C
:100A20000A6802F8010B0A60704710B5FFF726FD4F
:100A3000203010BD30B5B0F10A024FEA900E71F1CE
:100A400000034EEA817EB0EB0E0061EB91014FEAAC
:100A5000101E4EEA017E10EB0E0041EB11114FEA21
:100A6000102E4EEA016E10EB0E0041EB11214FEA01
:100A7000104E4EEA014E10EB0E0041EB11414018B2
:100A800041F100014FEAD00040EA41704FEAD10144
:100A900010EB80054FEA810444EA907444EB0104B2
:100AA0006D1944EB0404521BA3414FF0000348BFEF
:100AB0000A3200D530BD401C41F1000130BD0000BC
:100AC0002DE9F0411F46044603260168072A01F478
:100AD000006004DB08B116A505E016A503E008B127
:100AE00015A500E015A521F010002060A069C01E2A
:100AF000A0610FB1401EA0612046AFF300804FB14E
:100B0000D4E9012138469047206A401C2062C01C6D
:100B1000206206E0206AFAE7D4E9012115F8010B0A
:100B20009047761EF8D22046AFF30080BDE8F081F2
:100B30004E414E006E616E00494E4600696E660081
:100B40002DE9F047814616468AB0354878440DC8ED
:100B50008DE80D0032487844801C03AC0DC884E851
:100B60000D0041F69B300844372190FBF1F290FBD9
:100B7000F1F5A5F1800501FB12041B3C02D564428E
:100B8000012000E00020DFF898A080460027FA440A
:100B9000AAF1BE0A0EE0E0070AD03246684607EB2B
:100BA000470101230AEB810100F0DDFB8DE807001E
:100BB00064107F1C002CEED1194F7F44AE3F19E02A
:100BC000E80715D007EB04100DF1180A90E80E00A5
:100BD0008AE80E00C068F04201D1981908903246A8
:100BE000012306A903A800F0BEFB03AB83E80700BE
:100BF0006D10641C002DE3D14FF0010332466946AD
:100C0000B8F1000F03A802D000F098FB01E000F05B
:100C1000AAFBC9E90001C9F808200AB0BDE8F087BD
:100C2000FC35000001491820ABBEFEE7260002009B
:100C30007546FFF723FCAE4605006946534620F093
:100C40000700854618B020B5FFF706FCBDE8204038
:100C50004FF000064FF000074FF000084FF0000B78
:100C600021F00701AC46ACE8C009ACE8C009ACE82B
:100C7000C009ACE8C0098D46704700004FF0013C48
:100C800050F8042B51F8043B9A4221D1A2EB0C03FB
:100C9000934313EACC1317D150F8042B51F8043BBB
:100CA0009A4215D1A2EB0C03934313EACC130BD158
:100CB00050F8042B51F8043B9A4209D1A2EB0C03E3
:100CC000934313EACC13DBD04FF00000704700BF12
:100CD000D01A01BAB1FA81F101F0180122FA01F03B
:100CE000CB40C1F12001DBB2C0B2C01A2CFA01F333
:100CF000D11A914311EAC311E6D17047704743609E
:100D000042800180704700002DE9F04F89B046888D
:100D10000B889E4240F08E80058813889D4240F0EB
:100D20008980B1F802E053889E4540F0838000231B
:100D3000446852684968B7089FED410AA3EB9600E2
:100D4000089026F00300029206F00302019104EBE2
:100D5000800B07FB0EF001EB00104FEA8E010090B4
:100D600050420790CDE903E6029806950593DDE928
:100D700000AC00EB830800BF002FB0EE401AE14644
:100D800020462FD0089D63462046B0EE401A00BF93
:100D90005E1893ED002A90ED003A90ED014A90ED37
:100DA000025A90ED036A1030013596ED007A06EB99
:100DB000010323EE022A93ED003A0B4431EE021AAE
:100DC00093ED002A24EE074A0B4431EE041A25EE77
:100DD000033A31EE031A26EE022A31EE021AD7D177
:100DE000D14658466AB1079D99ED002A90ED003A28
:100DF0008944013500F1040023EE022A31EE021A83
:100E0000F2D188ED001A0AF1040A0CF1040CBEF1CB
:100E1000010E08F10408AFD1049E069DDDF80CE038
:100E2000059B0BEB860B04EB86047344013D9BD1C1
:100E3000002000E0FD2040B209B0BDE8F08F00BF07
:100E4000000000005FEA400C08BF91F0000F4FEA7D
:100E50008C234FEAC12243EA51514FEA1C5018BF7C
:100E600000F5F0404FEA300018BF41F000415FEA62
:100E70006C5C00F02980BCF1FF3F08BF40F080406F
:100E80007047130C06BF12044FF0100C4FF0000C0B
:100E9000130E04BF12020CF1080C130F04BF120151
:100EA0000CF1040C930F04BF92000CF1020CD30F51
:100EB00004BF52000CF1010C11464FF00002A0F1EA
:100EC0001F00A0EB0C00704711F0004F08BF7047E7
:100ED00031F000413FF4D5AF0B0C06BF09044FF0D1
:100EE000100C4FF0000C0B0E04BF09020CF1080CA3
:100EF0000B0F04BF09010CF1040C8B0F04BF890018
:100F00000CF1020CCB0F04BF49000CF1010CCCF129
:100F10002003A0EB0C0022FA03F302FA0CF241EAE0
:100F2000030100F10100704720F07F4C80EA0300CC
:100F300023F07F47ACEB070303F57C5300F0004040
:100F400003F1FF032DE980494FEA154B09B44FEA3D
:100F5000144325EA0B4E24EA03480FF2042606EB5D
:100F6000132749083E785FEA320203FB0667C7F59C
:100F7000000707FB06F64FEA54374FEAD64606F15C
:100F8000020607FB066CCCF1005C4FEA1C472CEA1A
:100F9000074C07FB06F40CFB06F504EB15464FEA7D
:100FA000961634BF00204FF000404FEAD13706FBC1
:100FB00007FC4FEA1C4C0CFB0BF7D21B03FB0CF796
:100FC00061EB07010CFB0EF7B0EB074072EB174229
:100FD0000CFB08F734BFA2EB0742B2EB074261EB10
:100FE00017414FEA0C444FEA910706FB07FC4FEA12
:100FF0001C4C0CFB0BF7B0EBC74072EB573203FBFA
:101000000CF734BFA2EBC742B2EBC74261EB5731DA
:101010000CFB0EF7B0EBC70072EB57720CFB08F736
:1010200034BFA2EBC702B2EBC70261EB5771039F5B
:101030004FEA816141EA921104EBCC044FEAD137C7
:101040004FEA826206FB07FC42EA90124FEA806098
:101050004FEA1C4C0CFB0BF7D21B03FB0CF761EBAC
:1010600007010CFB0EF7B0EB074072EB17420CFBCD
:1010700008F734BFA2EB0742B2EB074261EB17411E
:101080004FEA8C554FEA910704EB9C2406FB07FCC2
:101090004FEA1C4C0CFB0BF7B0EBC74072EB57321E
:1010A00003FB0CF734BFA2EBC742B2EBC74261EBC4
:1010B00057310CFB0EF7B0EBC70072EB57720CFB0D
:1010C00008F734BFA2EBC702B2EBC70261EB57715E
:1010D00015EB4C254FEA816141EA92114FEA826299
:1010E0004FEAD13742EA901206FB07FC44F10004B4
:1010F0004FEA80604FEA1C4C0CFB0BF7D21B03FB42
:101100000CF761EB07010CFB0EF7B0EB074072EB3D
:1011100017420CFB08F734BFA2EB0742B2EB0742C1
:1011200061EB174115EB1C154FEA813141EA924101
:101130004FEA823242EA90424FEA80304FEA0C7620
:1011400044F1000448EA03434EEA0B484FF0000E16
:10115000B2EB080C71EB030724BF624639464EEB35
:101160000E0E4FF0000B0018524149414BEB0B0B98
:10117000B2EB080C71EB03077BF1000B24BF624656
:1011800039464EEB0E0E4FF0000B0018524149410C
:101190004BEB0B0BB2EB080C71EB03077BF1000B75
:1011A00024BF624639464EEB0E0E51EA020718BFC5
:1011B00046F0010616EB0E7655F1000254F10001DF
:1011C00003D5BDE88901BDE80088BDE88901BDE817
:1011D0000048B619524141EB0101A3F101037047E8
:1011E00080807F7E7D7C7B7A797877767675747364
:1011F000727171706F6E6E6D6C6C6B6A6A69686823
:10120000676666656464636362616160605F5F5EB8
:101210005E5D5D5C5C5B5B5A5A595958585757562E
:101220005655555554545353525252515150505093
:101230004F4F4F4E4E4D4D4D4C4C4C4B4B4B4A4AE5
:101240004A49494948484847474747464646454529
:101250004544444444434343434242424241414162
:10126000002B9C4630D477002BD01CB54FEA3707B3
:1012700003B44FF010004FF01001BAF1000F06D088
:10128000BCF1000FDCBF40F0080040F008014FF057
:1012900000000FBCBDE810400BF1010BBBF1010FCA
:1012A00008BF5FEA170722BF12F1010211F1010125
:1012B0004FF0004143F1000300F0004043EA00001A
:1012C0007047F9D35708D0E746EA064613F1400FB6
:1012D0004FEA16461FDD13F1200FDFBF16430A4603
:1012E000002120335B42BED0C3F1200746EA064608
:1012F00002FA07F74FEA164646EA0706C3F1200747
:1013000022FA03F201FA07F721FA03F14FF0000382
:1013100042EA0702A7E746EA020646EA06464FEA1D
:10132000164646EA0106BCBF46EA0646360C4FF0B2
:1013300000034FF000024FF0000194E72DE9804CCC
:101340009A46934670B491E8380007C831EA400CD9
:1013500048BF34EA430C03D5FFF7E6FDFFF780FFF3
:10136000F0BCBDE8008C2DE9804C9A46934670B4E1
:1013700091E8380007C810F0804F08BF13F0804F85
:1013800003D100F005F8FFF76BFFF0BCBDE8008C5F
:1013900020F07F4780EA030023F07F4C07EB0C032B
:1013A000A3F57C5300F00040A3F1FE0392F0000F80
:1013B00000F0B38095F0000F00F077802DE901492F
:1013C0004FEA11404FEA144621EA004800FB06FCB0
:1013D00024EA064708FB06F607FB08F800FB07F7B8
:1013E00018EB06484CEB164C4FEA124B18EB07482B
:1013F0004FEA15464CEB174022EA0B4E0BFB06FC5E
:1014000025EA06470EFB06F607FB0EFE0BFB07F769
:101410001EEB064E4CEB164C4FF000061EEB074E33
:101420004CEB174B18EB0B0840F1000018EB0E0BC0
:1014300058EB000840F100008F1A4FF000013CBF4C
:10144000C943661B14BFB5EB040C00213CBFC94364
:10145000F61B4FEA17444EEA8E0E27EA04454FEA80
:101460001C4704FB07622CEA074C05FB07F70CFB43
:1014700005F604FB0CFC16EB074642EB174216EB95
:101480000C4642EB1C421BEB060658EB02024141A4
:1014900046EA9E0601D5BDE80189B619524141EBE5
:1014A0000101A3F10103BDE801894FEA14454FEAA8
:1014B000114724EA054621EA074C05FB07F406FB21
:1014C00007F70CFB06F105FB0CFC11EB074144EBA5
:1014D00017444FEA124711EB0C4144EB1C4422EA3B
:1014E000074C05FB07F206FB07F70CFB06F605FBAE
:1014F0000CFC16EB074642EB174216EB0C4642EB90
:101500001C456A1854F1000148BF7047B619524192
:1015100041EB0101A3F10103704795F0000F37D0B3
:101520004FEA11424FEA144721EA024624EA074CE7
:1015300002FB07F106FB07F70CFB06F402FB0CFCB1
:1015400014EB074441EB17414FEA154714EB0C44E9
:1015500041EB1C4125EA074C02FB07F506FB07F7A8
:101560000CFB06F602FB0CFC16EB074645EB174599
:1015700016EB0C4645EB1C42121951F1000148BF15
:101580007047B619524141EB0101A3F101037047C5
:101590004FEA14454FEA114724EA054621EA074C71
:1015A00005FB07F106FB07F70CFB06F24FF0000600
:1015B00005FB0CFC12EB074241EB174112EB0C420E
:1015C00051EB1C4148BF7047921841EB0101A3F158
:1015D00001037047000000001648006840F48030A6
:1015E00014490860081D0068134908431149091D82
:1015F0000860081F006840F08070091F086000BF85
:101600000C48006800F00070B0F1007FF8D1094884
:101610000830006840F002000649083108600B20DD
:10162000044930310860081D006840F04000091D81
:1016300008607047003802408425400700EB8001B5
:10164000480000E0401E0028FCDC70474FF0553099
:101650000349086040F215500249086070470000D5
:10166000000C0240000402401448006840F470007E
:10167000124908601248006840F0010010490860F3
:1016800000200F49083108600D4800680D490840E6
:101690000B4908600C48091D0860081F006820F409
:1016A0008020091F0860002005490C3108604FF0B8
:1016B00000600249803908607047000088ED00E052
:1016C00000380240FFFFF6FE1030002403B40198FA
:1016D0004100009850EAC12018BF04204A0D18BFED
:1016E00040F0010040F2FF72B2EB515F08BF40F0E2
:1016F0000200012808BF052002B07047000000006A
:1017000010B52DED020B2DED088B84B09DED0C0B6B
:1017100051EC100B02F0E6FA41EC180B9DED0C0BAE
:1017200053EC182B51EC100B02F036FB41EC190B6B
:101730000D989FED290B10F0004F53EC102B51EC3E
:10174000190B9FED21AB9FED22BB0ED002F004FAE6
:101750000ED953EC1B2B51EC190B02F08DFA1CD255
:1017600014E000BF41EC180B17E002F0F5F906D2C7
:1017700053EC1A2B51EC180B02F00EFBF2E753EC72
:101780001B2B51EC190B02F077FA06D853EC1A2BED
:1017900051EC180B02F02CF9E4E78DED028B9DED76
:1017A0000C0B18EE901A10EE900A8DED000B61F301
:1017B0001E0003909DED020B04B0BDEC088B02B03F
:1017C00010BD000000000000000000000000F03F1D
:1017D000000000000000E03F000000000000E0BF4B
:1017E00010B5002A06DA22F00042D21D22F00703CB
:1017F000102203E0D21C22F003030C2213B19C1828
:101800008C4201D9012010BD024401448360C0E92B
:101810000021C91AD018884202D810600246F9E7A0
:101820000020106010BD30380A2801D20120704716
:101830000020704705490978002905D000684FF657
:10184000FF71DFF80CC000DF70470000851000203A
:10185000F92E000804490978002903D00068DFF850
:101860000CC000DF7047000085100020212E00080A
:1018700008480068C0010BD507480068C00707D0BA
:10188000054880380068002802DA04490120087001
:1018900070470000FCED00E0800E00E0A810002082
:1018A0004FF06042D36F002BFCD0036BD367D36F34
:1018B000002BFCD0C07840EA0120A2F87C007047E1
:1018C0004FF06041CA6F002AFCD081F87C0070475D
:1018D00010B5002403E0204600F00AF8641C082C30
:1018E000F9DB402001F0D4FEB82001F0D1FE10BD9C
:1018F00030B505460520FFF7A1FEE9B2002000F053
:101900004DF81020134908600520FFF797FE4FF4AB
:10191000001010490860002408E00021084600F08B
:10192000D5F84021002000F0D1F8641C402CF4DBF5
:10193000E9B2402000F032F8002408E00021084617
:1019400000F0C4F84021002000F0C0F8641C402CD6
:10195000F4DB30BD180402402DE9F04705460F4680
:1019600090469946DDF820A00520FFF767FE4E4619
:1019700010E03C460AE03146204600F00FF8287897
:10198000214600F029F86D1C601CC4B24445F2DD0C
:10199000701CC6B25645ECDDBDE8F08730B5054693
:1019A0000C460520FFF74AFE204600F0BFF9284606
:1019B00000F036F930BD00B50520FFF73FFE3F20AF
:1019C00001F066FE402001F063FEB82001F060FEE9
:1019D000C02001F05DFE00BD00B502460B46402B65
:1019E00037DA4FF48020374908600520FFF726FEDC
:1019F0004FF40030334908600520FFF71FFE012037
:101A0000304908600520FFF719FE10202D490860B5
:101A10000520FFF713FE4FF400102A490860052047
:101A2000FFF70CFE4FF47F00274908600520FFF701
:101A300005FE0420234908600520FFF7FFFD22482A
:101A400002600520FFF7FAFD4FF480201D49086071
:101A500036E04FF480201B4908600520FFF7EEFDBB
:101A60004FF40030174908600520FFF7E7FD01201B
:101A7000144908600520FFF7E1FD4FF4801011497B
:101A800008600520FFF7DAFD20200E4908600520D8
:101A9000FFF7D4FD4FF47F000B4908600520FFF7E6
:101AA000CDFD0420074908600520FFF7C7FD064863
:101AB00002600520FFF7C2FD4FF480200149086055
:101AC00000BD000018040240180C024000B5024698
:101AD0000B46402B37DA4FF4802037490860052049
:101AE000FFF7ACFD4FF40030334908600520FFF7E5
:101AF000A5FD0120304908600520FFF79FFD10205B
:101B00002D4908600520FFF799FD4FF400102A4980
:101B100008600520FFF792FD4FF47F002749086019
:101B20000520FFF78BFD0420234908600520FFF7FF
:101B300085FD224802600520FFF780FD4FF48020DC
:101B40001D49086036E04FF480201B4908600520DD
:101B5000FFF774FD4FF40030174908600520FFF7C8
:101B60006DFD0120144908600520FFF767FD4FF463
:101B70008010114908600520FFF760FD20200E4904
:101B800008600520FFF75AFD4FF47F000B490860FD
:101B90000520FFF753FD0420074908600520FFF7E3
:101BA0004DFD064802600520FFF748FD4FF48020F8
:101BB0000149086000BD000018040240180C0240F2
:101BC0002DE9F04105460E4617460520FFF736FD84
:101BD0001FE02878C40004F1060817E039463046B3
:101BE000FFF7DCFE0D49085D3146FFF76FFF701C03
:101BF000C6B2792E09DDE11704EB5171C910A4EBCF
:101C0000C10111B9781CC7B20026641C4445E5DD4A
:101C10006D1C28780028DCD1BDE8F0810000002090
:101C200000B502460520FFF709FD402A3BDAD0B295
:101C300040F040024FF480203A4908600520FFF749
:101C4000FDFC4FF40030374908600520FFF7F6FC33
:101C50004FF48030334908600520FFF7EFFC102077
:101C6000304908600520FFF7E9FC4FF400102D49CA
:101C700008600520FFF7E2FC4FF47F002A49086066
:101C80000520FFF7DBFC0420264908600520FFF74C
:101C9000D5FC254802600520FFF7D0FC4FF48020DA
:101CA000204908603CE0A2F14000C2B242F040028C
:101CB0004FF480201B4908600520FFF7BFFC4FF45C
:101CC0000030184908600520FFF7B8FC4FF4803059
:101CD000144908600520FFF7B1FC4FF4801011494A
:101CE00008600520FFF7AAFC20200E4908600520A7
:101CF000FFF7A4FC4FF47F000B4908600520FFF7B5
:101D00009DFC0420074908600520FFF797FC064862
:101D100002600520FFF792FC4FF480200149086023
:101D200000BD000018040240180C024000B5034634
:101D30000520FFF783FC03F0BF0040F0B80318460E
:101D400001F0A6FC00BD0EB5802200B109B110461D
:101D50000AE001780129FAD101A900F01FF804284E
:101D600001D0002000E01020DDE9011203B000BD29
:101D700070B50D46040003D012B92078012801D0B7
:101D8000802070BD204600F045FF28B1294620463E
:101D900000F02FF8002070BD812070BD10B5044602
:101DA0008089002824D0608904EB800000690860E5
:101DB000606840B16078022805D10021204601F01A
:101DC00025F901F013F904F10C0000BFD0E85F1F02
:101DD000491E8AB2C0E8512F0029F7D16089401C02
:101DE00080B26081E189884201D1002060810420B5
:101DF00010BD10B501F00AF9BDE8104001F0F6B8C9
:101E00002DED028BA4B0FFF7E7FBFFF71FFCFFF7F8
:101E1000D2FDFFF75DFD0420FE490860FD48083053
:101E2000006800EE100AB8EE400AFB4880ED000A98
:101E300090ED000ADFEDF90A80EE201A11EE104A4B
:101E4000204602F093F841EC180BB0EE480AF0EE91
:101E5000680AFFF755FCF24880ED000B0120FFF700
:101E6000EDFBEF4890ED000B53EC102BEDA1EF488C
:101E7000FEF708FBE7480830006800EE100AB8EEED
:101E8000400AEB4880ED000A90ED000ADFEDE30A1E
:101E900080EE201A11EE104A204602F067F841EC5D
:101EA000180BB0EE480AF0EE680AFFF729FCE1488B
:101EB00080ED000B0120FFF7C1FBDE4890ED000B29
:101EC00053EC102BD7A1DC48FEF7DCFAD1480830E0
:101ED000006800EE100AB8EE400AD84880ED000A0B
:101EE00090ED000ADFEDCD0A80EE201A11EE104AC7
:101EF000204602F03BF841EC180BB0EE480AF0EE39
:101F0000680AFFF7FDFBCE4880ED000B0120FFF7CC
:101F100095FBCB4890ED000B53EC102BC1A1C948A9
:101F2000FEF7B0FABB480830006800EE100AB8EEC1
:101F3000400AC54880ED000A90ED000ADFEDB70ABF
:101F400080EE201A11EE104A204602F00FF841EC04
:101F5000180BB0EE480AF0EE680AFFF7D1FBBB4859
:101F600080ED000B0120FFF769FBB84890ED000BF6
:101F700053EC102BABA1B648FEF784FAA548083005
:101F8000006800EE100AB8EE400AB24880ED000A80
:101F900090ED000ADFEDA10A80EE201A11EE104A42
:101FA000204601F0E3FF41EC180BB0EE480AF0EEDA
:101FB000680AFFF7A5FBA84880ED000B0120FFF79A
:101FC0003DFBA54890ED000B53EC102B95A1A348C9
:101FD000FEF758FA8F480830006800EE100AB8EE95
:101FE000400A9F4880ED000A90ED000ADFED8B0A61
:101FF00080EE201A11EE104A204601F0B7FF41ECA6
:10200000180BB0EE480AF0EE680AFFF779FB954826
:1020100080ED000B0120FFF711FB924890ED000BC3
:1020200053EC102B7FA19048FEF72CFA794808302A
:10203000006800EE100AB8EE400A8C4880ED000AF5
:1020400090ED000ADFED750A80EE201A11EE104ABD
:10205000204601F08BFF41EC180BB0EE480AF0EE81
:10206000680AFFF74DFB824880ED000B0120FFF767
:10207000E5FA7F4890ED000B53EC102B69A17D48E9
:10208000FEF700FA63480830006800EE100AB8EE68
:10209000400A794880ED000A90ED000ADFED5F0A02
:1020A00080EE201A11EE104A204601F05FFF41EC4D
:1020B000180BB0EE480AF0EE680AFFF721FB6F48F4
:1020C00080ED000B0120FFF7B9FA6C4890ED000B92
:1020D00053EC102B53A16A48FEF7D4F94D48083051
:1020E000006800EE100AB8EE400A664880ED000A6B
:1020F00090ED000ADFED490A80EE201A11EE104A39
:10210000204601F033FF41EC180BB0EE480AF0EE28
:10211000680AFFF7F5FA5C4880ED000B0120FFF735
:102120008DFA594890ED000B53EC102B3DA1574808
:10213000FEF7A8F9072000237F2219460090544893
:10214000FFF70AFC0322052152A0FFF739FD002406
:102150003EE024B901221E213448FFF731FD012C55
:1021600004D101223C213448FFF72AFD022C04D17E
:1021700001225A213348FFF723FD032C04D1032207
:102180001E213348FFF71CFD042C04D103223C21FF
:102190003248FFF715FD052C04D103225A2132489D
:1021A000FFF70EFD062C04D105221E213148FFF752
:1021B00007FD072C04D105223C213148FFF700FD23
:1021C000082C04D105225A213048FFF7F9FC641C81
:1021D000092CBEDB124890ED000B51EC100B01F006
:1021E000D5FB1B90134890ED000B51EC100B01F048
:1021F000CDFB1C90124890ED000B51EC100B01F040
:10220000C5FB1D90114890ED000B51EC100B01F037
:10221000BDFB41E0000806504808002000102F4D8B
:1022200000080020252E306600000000AC100020C1
:102230004C08002008080020CC1000205008002086
:1022400010080020EC10002054080020180800207E
:102250000C11002058080020200800202C1100201C
:102260005C080020280800204C1100206008002095
:10227000300800206C11002064080020380800207D
:102280008C1100206808002040080020AC110020BC
:102290006C080020413D00001E90FE4890ED000BB0
:1022A00051EC100B01F072FB1F90FB4890ED000BFE
:1022B00051EC100B01F06AFB2090F84890ED000BF8
:1022C00051EC100B01F062FB2190F54890ED000BF2
:1022D00051EC100B01F05AFB2290F24890ED000BEC
:1022E00051EC100B01F052FB23909FEDEF0B53ECE0
:1022F000102BEF4890ED000B51EC100B01F078FB28
:1023000041EC180B01F042FB1290EA4890ED000BF3
:1023100051EC100B01F03AFB13909FEDE70B53ECDF
:10232000102BE74890ED000B51EC100B01F060FB17
:1023300041EC180B01F02AFB14909FEDE20B53ECDB
:10234000102BE24890ED000B51EC100B01F024FD36
:1023500041EC180B01F01AFB15909FEDDD0B53ECCF
:10236000102BCC4890ED000B51EC100B01F040FB12
:1023700041EC180B01F00AFB16909FEDD70B53ECC4
:10238000102BC54890ED000B51EC100B01F030FB09
:1023900041EC180B01F0FAFA17909FEDC70B53ECC4
:1023A000102BBE4890ED000B51EC100B01F0F4FC2B
:1023B00041EC180B01F0EAFA18909FEDC20B53ECB8
:1023C000102BB74890ED000B51EC100B01F010FBF7
:1023D00041EC180B01F0DAFA19909FEDB70B53ECB2
:1023E000102BB04890ED000B51EC100B01F0D4FC19
:1023F00041EC180B01F0CAFA1A909DED120A10EE8A
:10240000101A084601F0B2FD41EC180B53EC182BE2
:10241000AFF2F011B248FEF735F89DED130A10EE59
:10242000101A084601F0A2FD41EC180B53EC182BD2
:10243000AFF21021AB48FEF725F89DED140A10EE1F
:10244000101A084601F092FD41EC180B53EC182BC2
:10245000AFF23021A448FEF715F89DED150A10EEF5
:10246000101A084601F082FD41EC180B53EC182BB2
:10247000AFF250219D48FEF705F89DED160A10EECB
:10248000101A084601F072FD41EC180B53EC182BA2
:10249000AFF270219648FDF7F5FF9DED170A10EE9B
:1024A000101A084601F062FD41EC180B53EC182B92
:1024B000AFF290218F48FDF7E5FF9DED180A10EE71
:1024C000101A084601F052FD41EC180B53EC182B82
:1024D000AFF2B0218848FDF7D5FF9DED190A10EE47
:1024E000101A084601F042FD41EC180B53EC182B72
:1024F000AFF2D0218148FDF7C5FF9DED1A0A10EE1D
:10250000101A084601F032FD41EC180B53EC182B61
:10251000AFF2F0217A48FDF7B5FF7A48FFF78EF861
:10252000072000237F22194600907748FFF714FA0E
:102530000322052175A0FFF743FB00243EE024B9E8
:1025400001221E216648FFF73BFB012C04D101222A
:102550003C216448FFF734FB022C04D101225A21AC
:102560006148FFF72DFB032C04D103221E215F4895
:10257000FFF726FB042C04D103223C215C48FFF723
:102580001FFB052C04D103225A215A48FFF718FBE0
:10259000062C04D105221E215748FFF711FB072CFA
:1025A00004D105223C215548FFF70AFB082C04D131
:1025B00005225A215248FFF703FB641C092CBEDB9D
:1025C0005048FFF73BF81BAB0322114610A8FEF75B
:1025D00096FB12AB032211460EA8FEF790FB03AB4D
:1025E000032211460CA8FEF78AFB0CAA0EA910A81C
:1025F000FEF78AFB0D9D072000237F2219460090DD
:102600004348FFF7A9F9002494E005EB840090ED1E
:10261000000A10EE101A084601F0A8FC41EC180B55
:1026200053EC182B3BA101A8FDF72CFF24B9012284
:10263000052101A8FFF7C4FA012C04D1012232219F
:1026400001A8FFF7BDFA022C04D101225A2101A8EA
:10265000FFF7B6FA032C04D10322052101A8FFF7E6
:10266000AFFA042C04D10322322101A8FFF7A8FA03
:10267000052C04D103225A2101A8FFF7A1FA062C48
:1026800004D10522114601A8FFF79AFA072C49D177
:10269000052243E020080020280800203008002000
:1026A0003808002040080020000000000000F03F33
:1026B0000008002008080020000000000000104072
:1026C000100800200000000000001840180800203A
:1026D000000000000000084000000000000014405E
:1026E000AC100020CC100020EC1000200C110020B9
:1026F0002C1100204C1100206C1100208C110020A6
:10270000AC110020C0C62D006C080020423D000026
:102710006C0C0020252E316600000000322101A83B
:10272000FFF74EFA082C04D105225A2101A8FFF721
:1027300047FA641C092CFFF668AF00BFFEE70000F3
:10274000EFF3058008B182207047EFF31480C007D3
:1027500003D0DFF80CC000DF704700F0DBBF0000E3
:102760001537000888B0EFF3058010B1822008B05B
:102770007047EFF3148010F00301134806D00129CD
:102780001BD0022911D0032919D113E008A981F324
:1027900009880078C0070BD05FF0020080F314882E
:1027A000BFF34F8FBFF36F8F09E00078C00706D1EA
:1027B0000320F3E70078C00701D0FF20D7E7DFF858
:1027C0000CC000DFD3E70000804000088537000818
:1027D000EFF305820AB1FFF7B6BADFF808C000DFF1
:1027E00070470000F1370008EFF305820AB10020BE
:1027F0007047EFF31482D20702D1044A52781AB11B
:10280000DFF80CC000DF704701F010B88410002022
:102810002D380008DFF80CC000DFDFF80CC000DF47
:10282000FEE7000099380008B5380008DFF804C05A
:1028300000DF7047ED380008094C4FF0FF3529469E
:102840002068FFF7C5FF02460846102AF7D1FFF7B8
:10285000EDFF0028F3D0024608469047EFE700005E
:1028600074100020012806D0022805D0032804D0C7
:10287000042804D102E003E002E001E000E000BF30
:1028800000BF00BFFEE700BFFEE700000748016889
:102890004FF0E0204161002181610721016104487E
:1028A000016841F07F410160401770477C4000089B
:1028B00020ED00E0704750E8001F31B10B6840E8A0
:1028C0000032002AF7D108467047BFF32F8FFAE78E
:1028D00010B568B161B10B3121F0030201684468A1
:1028E0000B1A1B1B934205D2084609680029F5D133
:1028F000002010BD210007D021180368C1E9003273
:10290000016001F1080010BD4260083010BD0000F8
:1029100070B50D46002812D04FF6FF71084C884262
:1029200004D222680146104600F09EFB20684570E4
:10293000044800F0D9F8BDE8704000F067BC70BDF5
:102940008C100020CC1D00200F4810B50D494268A6
:102950000E480B680068934204D00A60CB88421E80
:102960001A448A808A8880B282420AD10020086094
:10297000054800F0B9F80146BDE81040024800F0F3
:1029800097BB10BDA0100020CC1D00209C10002083
:1029900070B5194DE86800282CD0A88A401EA8827E
:1029A000002621E0A06838B161684160606810B11C
:1029B000A16881606660A6600F482146183800F063
:1029C00077FBA08AA8826078042804D10B49E08AAA
:1029D00009880844A08201206070E068E860E0682F
:1029E00008B10561E6602661A88A002802D1EC687A
:1029F000002CD7D170BD0000E41D00209C100020E9
:102A000070B504000FD00D4DA1780126286882789A
:102A100091420CD900F068FB286846702046BDE85A
:102A2000704000F0F3BB064800F05EF8F7E7667010
:102A30002146BDE87040024800F03ABB8C100020EF
:102A4000CC1D002010B50446008B0843208362781B
:102A5000618B062A18D0052A19D1084217D001EA3D
:102A60000002628388432083204600F077FB012028
:102A70006070628B0821204600F068FB2146BDE8AB
:102A80001040034800F014BB31EA0002EAD010BD48
:102A9000CC1D0020814202D342688A4201D8012025
:102AA000704702680A60BFF35F8F50E8003F0A6812
:102AB0009A42F6D140E80012002AF2D10020704775
:102AC00068B161B10022083902E00246006830B105
:102AD0008842FAD12AB100681060002070470120B6
:102AE000704700214160F8E70146406842684A604B
:102AF0000B780022022B05D0012B03D0032B01D031
:102B00004260704743680BB19960426082607047D1
:102B1000810700D00020704770B50446002015469C
:102B2000207001226270A17084F824106060A0609F
:102B3000E06020612062A082E0822083608384F8CC
:102B40002500E08C18B90548FFF7B5FEE06229467C
:102B50002046BDE8704000F01DB80000481300207A
:102B600008B1082901D2012070470144091F002241
:102B700001600A604260104670470000034800216F
:102B8000016003490988C18070470000A01000203F
:102B90007040000870B5C28C1C4D930802D12A8881
:102BA000C2F38D03C26A02EB8302540700D5121FE1
:102BB0004FF0807442E9021400242646B2F140022C
:102BC00042F82460641C0E2CFAD3C4691462826239
:102BD00001632968C90014D5112B12D94FF0FF31B8
:102BE000103B11EB53014FF0CC3305D042F8043CBD
:102BF00042F8083D491EF9D1C16A121F8A4200D924
:102C00001360C06A0249016070BD00006C4000089A
:102C1000A52E5AE2C1898089081A704701220270E4
:102C200000224270827042600281428110398281AA
:102C30008908C181704700002DE9F04104464068D1
:102C40000E464FF0000804F10C05E8B36078012748
:102C500001283ED0022813D003285CD10846FFF794
:102C60002AFE050057D02046FFF73EFF04462946BE
:102C700000F066FA6770204600F070FA214621E005
:102C80002046FFF731FF0646002100F059FA21895E
:102C9000F06904EB81010861D5E85F0F401C81B247
:102CA000C5E8501F0028F7D12089401C80B2208140
:102CB000E189884201D1A4F808807770304600F09D
:102CC0004DFA3146174800E00CE0BDE8F04100F055
:102CD000EFB92046FFF708FF04463246102100F006
:102CE00035FAC7E7A089E189884216D2208904EB2A
:102CF00080000661D5E85F0F401C81B2C5E8501F17
:102D00000028F7D12089401C80B22081E1898842C7
:102D100001D1A4F80880BDE8F081BDE8F0410320AE
:102D2000FFF7A0BDCC1D002070B504468089154674
:102D30000026C0B3608904EB8000006908606089E8
:102D4000401C80B26081E189884200D16681606860
:102D500010B1607802280BD014F10C04D4E85F0F96
:102D6000401E81B2C4E8501F0028F7D1002070BD7A
:102D70002046FFF7B9FE0546002100F0E1F9218960
:102D8000E86904EB810108612089401C80B2208140
:102D9000E189884200D12681284600F0DFF92846E3
:102DA000FFF72EFEE2E7FFE73DB10B4862680168DE
:102DB0002AB1204600F07CF908E0012070BD616076
:102DC00001684E6000688460012060700821284618
:102DD000FFF79EFDF1E700008C100020002814D0C2
:102DE000411C13D00C4A4FF6FE7190420CD800EBF8
:102DF0004002C2EBC0120948036803EBC202521E34
:102E0000B2FBF3F0884204D9084670474FF6FF70D2
:102E1000704780B27047000000093D008C400008F8
:102E20002DE9F0410446408820B1314DA1682A685F
:102E3000914202D0FF20BDE8F081401E0004000C4A
:102E4000608053D12968086AA04209D1E06808620D
:102E500008E0C268A24202D1E268C26002E0104605
:102E60000028F6D191F824000A6A06E053681BB1E5
:102E70009B78834200D91846D268002AF6D1887020
:102E8000DFF870806168012611B32046FFF72CFE41
:102E90000746002100F054F9384600F05FF96680DB
:102EA000A760386AE0603C622968D8F804008A7834
:102EB0008078824201D3384616E00E4800F0F8F8D8
:102EC00039460C4800F0F4F8286846707E700AE035
:102ED000D8F804108A782968824207D9054800F09A
:102EE000E7F8286846700020FFF78AFD0020A2E777
:102EF0008C100020CC1D002070B51C4D0E460446E1
:102F00004188286861B1A268824210D1A1F57F4052
:102F1000FF3803D0491C6180002070BDFF2070BDC8
:102F2000A060016AE160046201206080F4E776B18C
:102F300091788078814203D29070A06800F0DEF82A
:102F4000606830B12046296800F0B2F808E001203E
:102F500070BD286860602968002048602868846027
:102F600009213046FFF7D4FCF1E700008C10002067
:102F700070B51B48012102685170006800F0B4F878
:102F8000184D6C7818E000BF05EBC4014868027862
:102F9000EAB1012A20D000F00DF9E878641C8442DF
:102FA00000D100240F48801CD0E84F1F491EC9B231
:102FB000C0E8421F002AF7D1A8780028E4D16C703D
:102FC0000948FFF791FDBDE8704000F01FB909897D
:102FD00089B2FFF737FDE0E78968FFF72DFEDCE7F0
:102FE0008C100020B8190020CC1D00200548017865
:102FF00011B101214170704703494FF080500860C2
:10300000704700009410002004ED00E0F0B4154D6E
:10301000AB1CEE784FEA0507D3E84F2FB24202D13E
:10302000BFF32F8F11E0521CD4B2C3E8424F002AE5
:10303000F2D100BFD7E84F2F541CB44200D1002476
:10304000E4B2C7E8434F002BF4D1EB78934205D9A3
:1030500005EBC202C2E90101F0BC7047F0BC0220DE
:10306000FFF700BCB8190020104A10B5D368ABB107
:1030700013469B8A03E08CB12246A48A2344D46879
:103080008B42F8D3C460D0600261C46804B120618F
:10309000591A8182908A401A908210BD0024C4601F
:1030A000D060C91A02619182848210BDE41D0020A3
:1030B00030B502780023022A03D0012A01D0032A66
:1030C00000D101238C7800E01046426812B1957857
:1030D000A542F9D24A6041601BB102B1916088609B
:1030E00030BD0020FBE7000003494A68426000222F
:1030F0008260486070470000CC1D002010B58368D6
:1031000004462BB9607801280ED1084B03E09B6878
:1031100018780028FBD0204600F034F82146BDE89E
:1031200010401846FFF7C4BF10BD0000CC1D0020A2
:1031300090F82510806A09B16030704720307047E0
:1031400010B50C46FFF7F4FF046010BD70B51546CE
:103150000C46FFF7EDFFC0E9004570BD10B50169F1
:1031600000290ED0C268CA60C36800223BB18B8AB6
:10317000848A23448B82C3681961C26000E08A821A
:10318000026110BD816839B142684A604168002916
:1031900001D0806888607047054906E04A6882422D
:1031A00002D140684860704711460029F6D1704747
:1031B000CC1D002010B5416881B1FFF795FC044695
:1031C000FFF7CCFF0120607001462046FFF7B8FFF3
:1031D0002146BDE810400348FFF76ABF4188491CFB
:1031E000418010BDCC1D002006480068D0E90A10BF
:1031F000814203D300680449884202D00120FFF7CE
:1032000031BB70478C100020A52E5AE207490222DC
:1032100048604270064A1278002A05D006C98A42E0
:1032200002D0C078FEF74CBB704700008C10002025
:10323000A810002070B5FEF71BFB00200446204AB2
:10324000204902E042F82040401C0B889842F9D304
:103250001D48342201881D48FEF7C2FA1C48008828
:1032600080B240F000421B4801681B48FEF7B8FAE4
:103270001A48082201881A480068FEF7B1FA194D69
:10328000FF20194AE870EC8400212846FFF744FC2F
:10329000164804210170446015480170C46004613F
:1032A0008482144815490560022068701248047031
:1032B00044700978C170BDE87040FFF75FBC000042
:1032C0003C1A00206840000894400008D0110020FB
:1032D0006C4000089840000848130020BC400008DB
:1032E0007C100020981D002087280008CC1D00209D
:1032F000E41D00208C100020B8190020A040000818
:103300001B4810B5016841F47F01016000684FF06F
:103310007F4101EA00201649C0431439B0FA80F019
:103320000968C0F10800C1F30221814200D3481CA2
:103330000F49091F0B686FF08072824063F3170218
:103340000A60FFF7A3FA0B49002808600EDB00F1C2
:10335000E021FF2281F8002400F01F0201219140AA
:103360004009800000F1E020C0F8001110BD00000D
:1033700020ED00E0981000200C4810B502680121F3
:1033800051700068FFF7B0FEFFF7DEFA08480168E9
:10339000491C0160FFF7FCFA00F0B4FA0548FFF79A
:1033A000A3FBBDE81040FFF731BF00008C100020E8
:1033B0009C100020CC1D0020002805D0810702D1E0
:1033C0000178002900D000207047000030B50B4C78
:1033D0000023626805E095688D4204D813461268A0
:1033E000491B002AF7D10260816012B19568691A01
:1033F00091600BB1186030BD606030BD841000205A
:103400002DE9F0411E46174680460D4611F0FF0F8C
:1034100000D14D1C1848FFF74EFA041E16D0280A9A
:10342000E762E084E9B242462046E661FFF774FBBA
:1034300001251248124905E000EB850252F8042CE0
:1034400032B16D1C0A889542F6D90020BDE8F081A2
:10345000002DFAD000EB850040F8044C0948E570D7
:10346000007818B101212046FEF71AFA2046FFF72E
:10347000C7FA2846EAE70000D01100203C1A0020D5
:1034800068400008A81000202DE9F05F584DDFF8D3
:103490005891DFF8588129684FF0010A002618B1C9
:1034A000CA78AB46824243D14E70FCF7FEFE2968D3
:1034B0008862FFF799FE2868046A1FE06068C0B15F
:1034C0002046FFF711FB07460021FFF739FE38467B
:1034D000FFF744FE87F801A039464648FFF7E8FDAC
:1034E000E168A4F802A0A760386AE0603C620C467C
:1034F00004E0E0686680A660E6600446002CDDD14A
:103500002868C27808EB820141F8046CC16A3A4825
:10351000FFF7C0FA2868C66299F8001011B10021BF
:10352000FEF7BEF935482968FFF7B4FA2E6056E079
:103530003349098888420CD808EB800858F8045CA5
:103540003DB12846FFF71EFE2846FFF707FE2C6A0E
:1035500022E0FF20BDE8F09F6068C0B12046FFF781
:10356000C3FA07460021FFF7EBFD3846FFF7F6FDEB
:1035700087F801A039461F48FFF79AFDE168A4F8D3
:1035800002A0A760386AE0603C620C4604E0E06894
:103590006680A660E6600446002CDDD148F8046C25
:1035A0001548E96AFFF776FAEE6299F8000018B15B
:1035B00000212846FEF774F929461048FFF76AFAF9
:1035C0000C48DBF8001040688B7882789A4209D961
:1035D00081F801A00748DBF80010FFF769FD002023
:1035E000FFF70EFA0020B5E7A81000203C1A0020D3
:1035F0008C100020CC1D002048130020D01100208A
:103600006840000870B51A4D80B11A4A128890427D
:103610001FD8194A02EB800050F8044CCCB1A170BD
:1036200084F824102868A04205D014E0286881702E
:10363000286880F82410114840688078884215D99D
:103640000E482968FFF734FD2968012048700020E2
:103650000AE0FF2070BD2046FFF750FD607801288A
:1036600004D10648FFF740FAFFF7CAF9002070BD01
:103670008C100020684000083C1A0020CC1D00205F
:1036800002480068002800D0C07870478C100020E5
:1036900000B502460520FDF7D1FF4FF480201B49FD
:1036A00008600520FDF7CAFF4FF400301749086095
:1036B0000520FDF7C3FF4FF4803014490860052052
:1036C000FDF7BCFF1020114908600520FDF7B6FF8B
:1036D00020200E4908600520FDF7B0FF4FF47F0061
:1036E0000B4908600520FDF7A9FF04200749086081
:1036F0000520FDF7A3FF064802600520FDF79EFFA9
:103700004FF480200149086000BD00001804024009
:10371000180C024010B5134C207860B912484007CD
:1037200005D1124801681048FFF71AFA08B1852040
:1037300010BDFFF77FFD0E49FF20096888702078D3
:1037400058B900210B4800F041F80B4908600021EE
:103750000A4800F06BF80A49086001202070002038
:10376000607010BD84100020081800209C400008E4
:103770008C100020B440000874100020A440000801
:103780007010002070B50F4D687808B1002070BD32
:103790000D4C206890F824100020FFF733FF2068BC
:1037A000C178FF2903D1816A203181F309886168DA
:1037B00011B9606000202060FFF7A2FD0120687051
:1037C000E4E70000841000208C10002010B50400F5
:1037D00005D0216819B1606808B102780AB10020EB
:1037E00010BD8900103189B2FFF718FA606810BD6A
:1037F0003EB504000D464FF0800012D0217801291B
:103800000FD12846FFF7EAFA0246204601A9FFF742
:103810008BFA012801D0102003E00DB1402000E018
:103820000020DDE9011203B030BD000070B50E4686
:10383000040029D0206838B3606810F1030F23DB3F
:10384000032821DCE16829B11048FFF741F80500A1
:103850001AD000E000256068E168001D40EA0121FF
:1038600033462A462068FFF7CBFD40B1084901EBFB
:103870008000084950F8040C826A516370BD1DB184
:1038800029460248FFF71CF9002070BD08180020E7
:103890003C1A00201528000810B5FFF7F1FE00289B
:1038A00004D0034901EB800050F8040C10BD000067
:1038B0003C1A002010B5FFF77FFD18B1C18C19B17B
:1038C000C46A02E0802010BD0024C078FFF7DCFD50
:1038D000FF2806D01CB121460348FFF7F1F800206D
:1038E00010BD812010BD00000818002010B5FFF7A2
:1038F0000FF920B141690A680169104610BD002026
:10390000014610BD2DE9F041134E7468002C1CD007
:10391000A068124F401E4FF00108A06012E025463B
:1039200024687460002229463868FEF721FA10B135
:103930000420FEF797FF6879012808D085F80480F5
:10394000002C02D0A0680028E9D0BDE8F08128460C
:10395000E968FFF73BFDF3E78410002074100020B6
:1039600010B500290AD00878002807D00548784407
:10397000FDF784F9002801D0002010BD02487844EA
:1039800010BD0000160800000E08000021F00042E3
:10399000A2F16052B2F5801F01F0004328BFD2F1BE
:1039A0007F6C0BD95FEA001C43EAC20242EB507005
:1039B00018BF704728BF20F001007047B2F5801F84
:1039C000BCBF184670474FEA410C1CF5001F02D2DD
:1039D000084600F041BB70B500F0FAF8000000891D
:1039E000FFF7F6BF4FF00040A0F5800070470000E1
:1039F00010B591EA030F48BF83F0004300F1D48172
:103A0000841A71EB030C05D2121943EB0C03001B53
:103A100061EB0C01DFF824E14FEA1154A4EB135CD5
:103A20001EEA430F18BF9EEA445F73D023EA0E03D9
:103A3000DCF1200E21EA045143F4801332D322FA40
:103A40000CFE10EB0E0023FA0CFE41EB0E01CCF144
:103A5000200E03FA0EFE10EB0E0051F10001B1F53D
:103A6000801FCCF1200E32D201EB045112FA0EF27B
:103A7000BDE8104058BF7047401C38BF5FEA4202A3
:103A800018BF7047002814BF20F0010041F1000169
:103A90004FEA410313F5001F38BF7047A1F1C04141
:103AA00000F0E4B8012A43EB0302ACF1200CDCF196
:103AB0001F0E32BF4FF0000E23FA0CF310EB030081
:103AC00041EB0451B4EB115FD0D0A1EB045101F5EF
:103AD000801149085FEA300001EB04510ED350F128
:103AE000000038BF12FA0EFE08D1BDE81040C9E749
:103AF000401C38BF5FEA4202CAD1C3E7BDE81040AC
:103B00004FEA410313F5001F38BF7047A1F1C041D0
:103B100000F0ACB89EEA445F08D011EA5E0FBDE841
:103B2000104004BF01F0004100207047BDE8104084
:103B300070B500F04DF800BF64FBBE3E0000E0FF32
:103B4000491058BFC1F140415B1058BFC3F1404319
:103B50008B42EFF30080704751EA030C17D41CF539
:103B6000801F58BFBCF5801F00F10680994218BF26
:103B7000704708BF9042704707D711F5801F58BFA4
:103B800013F5801F19D499427047894270471CF57C
:103B9000801F08D5BCF5801FF7D58B4218BF704732
:103BA00008BF824270474FF4001C1CEB410F38BF26
:103BB0001CEB430F01D28B42704770B500F008F840
:103BC000922449004FF000514FF08053FFF7B8BFE7
:103BD0000EF1020E2EF0030E5EF8046B364205D491
:103BE000012A43EB030515F5001F12D8012841EB0C
:103BF000010C1CF5001F0CD80ED14FEAD17C15F535
:103C0000001F0CEB4C0C0CF1020C08BF4CEBD37CEE
:103C100004E04FF0080C01E04FEAD37C0CEB4C05BC
:103C200026FA05F606F00706B6F1040C06D20EEBEE
:103C3000860CBDE870404CF0010C6047DFE80CF0EA
:103C4000090B02024FF000414FF00000A1F50021E6
:103C500070BD19461046012851EB010418BFD4F578
:103C6000001484BF002001F0004170BD0808A0F5D9
:103C700000114FEA3101704753EA010C17D41CF5CB
:103C8000801F58BFBCF5801F00F106808B4218BF13
:103C9000704708BF8242704707D713F5801F58BF8F
:103CA00011F5801F19D48B4270479B4270471CF559
:103CB000801F08D5BCF5801FF7D5994218BF704703
:103CC00008BF904270474FF4001C1CEB430F38BFF5
:103CD0001CEB410F01D2994270470FB40CBC03BCDE
:103CE000FFF76BBF5FEA410C5FEA5C5CACF5806399
:103CF0005B1C39D4D3F1340240F34580B2F1200388
:103D000014DA4FF0010C0CFA02FCACF10103034091
:103D1000B3EB5C0220EA030008BF10EA0C0F98BF67
:103D2000704710EB0C0041F1000170470AD0C3F15D
:103D3000200201FA02FC012821FA03F101FA03F141
:103D40004CF100004FF0010C0CFA03FCACF1010344
:103D5000B0F1004F21EA030108BF11EA0C0F4FF048
:103D6000000088BF61447047B3F1FF3F28BF50EAAD
:103D7000C12C01F000414FF0000084BF41F07C51A4
:103D800041F470017047B3F5806FB8BF704770B5EC
:103D9000FFF71EFF40DBB6BE10B591EA030F48BF28
:103DA00083F000433FF52CAE841A71EB030C07D26D
:103DB00012198CF0004C43EB0C03001B61EB0C015F
:103DC000DFF8A4E14FEA1154A4EB135C1EEA430FA1
:103DD00018BF9EEA445F00F0B08023EA6E035242AF
:103DE00021EA0451C3EB6E0338BF5B1EDCF1200EE9
:103DF00025D322FA0CFE10EB0E0043FA0CFE41EB29
:103E00000E01CCF1200E03FA0EFE10EB0E0051F164
:103E10000001CCF1200E29D412FA0EF201EB04516C
:103E2000BDE8104058BF7047401C1CBFB2F1004FA6
:103E3000704700280CBF491C20F00100704712EBAE
:103E4000020E43EB030218BF4FF0010E4EEA42028E
:103E5000ACF1200CDCF11E0E54D943FA0CFE10EB31
:103E60000E0051F1FF31CCF11E0ED5D50EF1010E31
:103E700012FA0EFE404141EB010101EB445C5FEAA6
:103E80005C5C10D910EBDE7001EB045138BFBEF161
:103E9000004FBDE8104018BF704700280CBF491CF8
:103EA00020F00100704730D24FEAD42C11F50011F8
:103EB00024F400641BD0B1FA81F20B3AA41AA41EB8
:103EC000D2F12003914030FA03F31943904001EB03
:103ED000CC71002C01EB0451BDE81040A8BF704725
:103EE00001F1C0414FF0000001F000417047B0FA0D
:103EF00080F310FA03F100D110BDE41A173C480515
:103F0000C90AE4E701EB045110BD491001EB04516B
:103F1000BDE810404FEA300002E04FF0000170476A
:103F20004A0008BF0042F8D0B2F5001F28BF704712
:103F300001F000414FF0000070479EEA445F07D057
:103F400011EA5E0FBDE8104004BF00210020704759
:103F5000BDE8104070B5FFF73BFE00BF40DFF63E06
:103F600083F00041104670470000E0FF43004FEA35
:103F7000D30C4FEA3C0C43401FBF40070CF160518B
:103F800013F0FE4F70471CF0006F03D100200CF0BF
:103F9000004170470CF0004343EA507010B540EA0E
:103FA000CC0000F00EF800BF000000924FEA0001C4
:103FB000FFF75CBE4FF000414FF00000A1F500217B
:103FC00070470EF1020E2EF0030E5EF8044B2442F1
:103FD00004D44FEA4102B2F17F4F11D84FEA4003B7
:103FE000B3F17F4F0CD80ED14FEAD07CB2F17F4FA6
:103FF0000CEB4C0C0CF1020C08BF4CEBD17C04E038
:104000004FF0080C01E04FEAD17C0CEB4C0324FA92
:1040100003F404F00704B4F1040C06D20EEB840C94
:10402000BDE810404CF0010C6047DFE80CF00708D9
:1040300002024FF00040A0F5800010BD084642008B
:1040400018BFD2F1807288BF00F0004010BD4FF061
:104050004070E1EE100A7047FF2141EAD050C005E0
:104060007047FCF78FBB000007000000C80002018A
:1040700005000100001BB7000C000000DF2E00004F
:10408000010000000200010052000400E8030000EB
:104090000000000078010000C0040000B001000032
:1040A0001000000039280008020000000100000094
:1040B000C800000004000000581A002000000000A2
:1040C000011E00080000000001000000C800000000
:1040D00002400000000000A00000000005400000B9
:1040E000000000C8000000000C4000000000409CE0
:1040F00000000000194000000020BCBE00000000CD
:1041000034400000BFC91B8E00000004B540000011
:10411000504BCFD06607E2CF010000006C41000099
:104120003E8251AADFEEA73401000000D942000010
:10413000DCB5A0E23A301F97FFFFFFFFB445000057
:10414000FD25A0C8E9A3C14FFFFFFFFFFF3F00000F
:104150000000008000000000FF3F00000000008021
:1041600000000000A041000800000020AC1000008A
:10417000C4010008C8460008AC100020B4130000B9
:10418000200200081C00000043000000F8FFFFFFB1
:104190000C0000000E0000000F0000002E000000C8
:1041A000018018092020282868B0602008162A28D5
:1041B0003020201E8080443224081D2424243816F8
:1041C00029011C242A112829071B20202349091909
:1041D0000A280930282818202422212049071916E6
:1041E000590919482A402C19012C60A0605A2B202B
:1041F0006067111B3028101330202D04061D256820
:1042000091624F1A0702411B147F023136242A7F24
:104210002A12362313086462463649552240530554
:1042200003541C22414C41221C382C083E08381AE9
:10423000080842085328183A0801215B3030F93544
:1042400010080402463E5149453E3B427F573642E4
:1042500061514946362141454B31461814127F10B1
:104260002627454545392D3C4A4949433C017109BA
:104270008236364949493646064949291E2A360EAC
:10428000314A56084B0814A12A240149A92A149836
:104290003602015109062D3249794180367E1111CD
:1042A000117E5A7F502E3E4141412210190729DAD2
:1042B000291829493E7F09090901202C49493A104A
:1042C00019D63A7F583A7F682D2040413F205A7FC7
:1042D000791B7F400129082C020C02282D7F04083D
:1042E00010082960297829501988463E4151215EDD
:1042F000367F091929461A46702A31E82C017F01B8
:10430000501A3F47323F3E1F2040201F103A601096
:104310003663140814633607087008074E61514964
:104320004543B8512E15167C16159F3A41A61136F5
:10433000040201020429972998490E19B82D5454F2
:1043400054783835444444381A38084119082A4802
:104350003A1A3820321836107E1101023D0C5252A2
:1043600052C02C08040438112B447D4F113D2040CD
:10437000403DC83B102840113B417F183C7C04184D
:10438000285A7C3029602968367C141414085E0889
:104390001414187C2029101A48702A20B02C3F448D
:1043A00040082D3C40402020361C2040201C361E5A
:1043B0002010201E3622140814222D06484848904A
:1043C0002D4464544C797408364149F82B413656D3
:1043D00019183C082A1C702C1C2A0808363C42413B
:1043E000423C1809302860A060283020014BA020F2
:1043F000081AB00419181910390F3C222022183C51
:1044000022302218191049185A21185A31183A2105
:10441000182C282828412908190F111FC0A828681E
:10442000B060CA2680804432041D242524381E280A
:104430000830242221242A11172B40342F1C20203D
:1044400038024A18074F382060808078102E2038B4
:1044500022392218190749182910296A294019A355
:104460003C302828183A600939114B2A1807691876
:1044700019094B203E1F2908290F29841328284990
:104480000719A82C40A0B00849184A2A185A2A1817
:104490001908591819774906111992490A19086C0F
:1044A0002A28320619703808B2A87A20202225015D
:1044B0001A191F2C1C22212C4D2C2A203F482C205D
:1044C000201F601B201F04116C304040172C304807
:1044D000486039064B80400829013C222018302AC8
:1044E0001A245C404440173D30283A2C861C3A2C54
:1044F00038901B14140D12202721222428100F5C41
:10450000B0A878572DA020A028331CA030A02019D7
:10451000A115A05010204A1E1D1119403328201843
:10452000080402023A020201092D063D0504112C7D
:10453000B6AD7D081680C0BFA08040080466859592
:10454000A8A848523F1B3028591B28300919F839B0
:10455000101C2220221019082A21081EC0A8A828F1
:10456000B06019081AA87E19082AAA8621452424B1
:1045700024383B2425081A80EA5119092234199F4E
:104580002E7820382018082C223922081A60A259C7
:1045900008132A182622140814222C20203E17491A
:1045A000081917214E40A0B02828081B2A2818599E
:1045B000E01B1820E22B2A30592CB2A87AA81C2C18
:1045C0002A20C34640A9AAA8F019192A7E373CAA76
:1045D000A9AA101AC03029D83E6080888060D929E5
:1045E0000E3124B0A87810080426252528100F1EA7
:1045F000042222262908111008212224A8D0AFA0C5
:104600001A704029283C70AAA8081F304040502842
:1046100008082CC040D00811540279024B027808D7
:104620003134050505700904030B0606A0A0A01A85
:1046300001013119585528102F20240403031A8032
:1046400001412E1010541010481A0402111B20248E
:10465000912C202830081A35F0180E086C8A8AA090
:1046600050102004B6AD7D2410111D191415180822
:1046700010090402021A22222120000884406050FE
:104680004850404069D20976570259FF09245A0917
:10469000FD8009FD80192604538080801956095831
:1046A000DA0937930952EA092778027AFF397B0938
:1046B000FD8009FD801905047480808019770979CF
:0846C000FB81023F2D00000008
:040000050800018965
:00000001FF
